:100000002500E70A080A5B0A730A980AAD0AD20AB1
:100010001502000F4306280A010F43062B0A030F9F
:1000200043062E0A010F4306310A070F4306340A1E
:10003000010F4306370A030F43063A0A010F43062E
:100040003D0A0F0F4306400A010F4306430A460AC2
:10005000C00C3500460AF90C3500460AA40C3500E0
:10006000460AB00C3500460A990C3500460A920C37
:100070003500460A820C3500460AF80C3500460A5F
:10008000800C3500460A900C3500460A260476009E
:10009000070C2700160287000307590AF507520AC2
:1000A0008605530A86040605060403047503B60292
:1000B000480A26050008020C3300FB0C3400140229
:1000C0004306700A010C28006700E702650AE8028F
:1000D000640A4A0C2700E7026B0A6E0AF402620AFD
:1000E000F3025D0A000867006800150203041606A3
:1000F000E701270328033606E701270328035606EE
:10010000E701270328037606E7012703280396065D
:10011000E70127032803B606E70127032803D606CD
:10012000E70127032803F606E70127032803000851
:10013000100C370067006A00340333030307A60A74
:100140001502E7010306AA021602EA012A032703A1
:1001500029032803F7029C0A480B6800690067001E
:100160006A0018024307B70A17024306D10A100CA7
:10017000390003047503760367036A0318028A00D3
:100180004307C40A170287000307CD0A1702A70016
:100190000307EA001802AA00030568036903F902CD
:1001A000B90A00081602680095000306DA0A15026B
:1001B0002700E60A6700080C37007503670316027C
:1001C0008700030627006803F702DD0A00086400C1
:1001D0000C0C06006600F70C35000809F70C35001A
:1001E0000809F70C350008095B09BF0C3500080940
:1001F000BF0C35000809BF0C350008095B09FE0C6F
:1002000035000809FE0C35000809FE0C3500080908
:100210005B09880C35000809C70C35000809C00CBB
:10022000350008096F000F0230002D006607380BFB
:10023000AF02050C27000F0287000306260B6F0094
:10024000080C2700100287000306B0025B091002A9
:1002500035000A0C360073090F02C8012D00C00CCE
:10026000350008090F023500080910023500080999
:100270004607EE0B2D024306C30B7200100231003D
:10028000120234001102330076003C0C3500050ADE
:1002900009023400080233000F0235000A0C360050
:1002A00073090802D3013100140232000306B202BE
:1002B000310243075E0B32024306C20BA6055B09FF
:1002C00046077B0BA6045B0946067B0BC10C350079
:1002D0000809880C350008098C0C350008095B09F1
:1002E000860C35000809920C35000809BF0C350052
:1002F00008095B09640B5B0911024306F200F10077
:10030000120236001102350078003C0C3700AD09AE
:1003100007022E00110233000E02B3001202340055
:10032000000C0307010CB400140236001302350060
:1003300078003C0C3700AD09080230000E02350091
:100340000A0C3600D20907028E00340035000A0C70
:100350003600D20908022F001202360011023500C1
:1003600078000A0C3700AD09070233000A02340096
:100370000702350008090F02350008091002350090
:100380000809580BE00B5B094607DF0BA6055B0964
:100390004606DF0B860C35000809C60C3500080937
:1003A000880C350008095B09C00C35000809920C5F
:1003B00035000809BF0C350008095B09C80B5B094B
:1003C000A6048E0C350008098E0C35000809C00CF7
:1003D000350008096D000D0230002F00160B0300D8
:021FFE00EA0FE8
:00000001FF
